{
  "_format": "hh-sol-artifact-1",
  "contractName": "EnsName",
  "sourceName": "contracts/EnsName.sol",
  "abi": [
    {
      "inputs": [],
      "stateMutability": "nonpayable",
      "type": "constructor"
    },
    {
      "inputs": [
        {
          "internalType": "uint256",
          "name": "_itemId",
          "type": "uint256"
        }
      ],
      "name": "buyENS",
      "outputs": [],
      "stateMutability": "payable",
      "type": "function"
    },
    {
      "inputs": [],
      "name": "ensContract",
      "outputs": [
        {
          "internalType": "contract IERC721",
          "name": "",
          "type": "address"
        }
      ],
      "stateMutability": "view",
      "type": "function"
    },
    {
      "inputs": [],
      "name": "itemCount",
      "outputs": [
        {
          "internalType": "uint256",
          "name": "",
          "type": "uint256"
        }
      ],
      "stateMutability": "view",
      "type": "function"
    },
    {
      "inputs": [
        {
          "internalType": "uint256",
          "name": "",
          "type": "uint256"
        }
      ],
      "name": "items",
      "outputs": [
        {
          "internalType": "uint256",
          "name": "itemId",
          "type": "uint256"
        },
        {
          "internalType": "string",
          "name": "name",
          "type": "string"
        },
        {
          "internalType": "uint256",
          "name": "tokenId",
          "type": "uint256"
        },
        {
          "internalType": "uint256",
          "name": "price",
          "type": "uint256"
        },
        {
          "internalType": "bool",
          "name": "listed",
          "type": "bool"
        },
        {
          "internalType": "address payable",
          "name": "seller",
          "type": "address"
        }
      ],
      "stateMutability": "view",
      "type": "function"
    },
    {
      "inputs": [
        {
          "internalType": "string",
          "name": "_name",
          "type": "string"
        },
        {
          "internalType": "uint256",
          "name": "_tokenId",
          "type": "uint256"
        },
        {
          "internalType": "uint256",
          "name": "_price",
          "type": "uint256"
        }
      ],
      "name": "listENS",
      "outputs": [],
      "stateMutability": "nonpayable",
      "type": "function"
    },
    {
      "stateMutability": "payable",
      "type": "receive"
    }
  ],
  "bytecode": "0x60a060405234801561001057600080fd5b507357f1887a8bf19b14fc0df6fd9b2acc9af147ea8573ffffffffffffffffffffffffffffffffffffffff1660808173ffffffffffffffffffffffffffffffffffffffff1660601b8152505060805160601c610fc46100816000396000818161029901526105da0152610fc46000f3fe60806040526004361061004e5760003560e01c80634783de501461005a5780636881e763146100835780636bfb0d01146100ae578063bfb231d2146100d9578063f3eee3851461011b57610055565b3661005557005b600080fd5b34801561006657600080fd5b50610081600480360381019061007c919061085d565b610137565b005b34801561008f57600080fd5b50610098610297565b6040516100a59190610aaa565b60405180910390f35b3480156100ba57600080fd5b506100c36102bb565b6040516100d09190610b65565b60405180910390f35b3480156100e557600080fd5b5061010060048036038101906100fb91906108cc565b6102c1565b60405161011296959493929190610b80565b60405180910390f35b610135600480360381019061013091906108cc565b6103b2565b005b6000811161017a576040517f08c379a000000000000000000000000000000000000000000000000000000000815260040161017190610b45565b60405180910390fd5b60008081548092919061018c90610dac565b91905055506040518060c0016040528060005481526020018481526020018381526020018281526020016001151581526020013373ffffffffffffffffffffffffffffffffffffffff168152506001600080548152602001908152602001600020600082015181600001556020820151816001019080519060200190610213929190610735565b50604082015181600201556060820151816003015560808201518160040160006101000a81548160ff02191690831515021790555060a08201518160040160016101000a81548173ffffffffffffffffffffffffffffffffffffffff021916908373ffffffffffffffffffffffffffffffffffffffff160217905550905050505050565b7f000000000000000000000000000000000000000000000000000000000000000081565b60005481565b60016020528060005260406000206000915090508060000154908060010180546102ea90610d49565b80601f016020809104026020016040519081016040528092919081815260200182805461031690610d49565b80156103635780601f1061033857610100808354040283529160200191610363565b820191906000526020600020905b81548152906001019060200180831161034657829003601f168201915b5050505050908060020154908060030154908060040160009054906101000a900460ff16908060040160019054906101000a900473ffffffffffffffffffffffffffffffffffffffff16905086565b6000600160008381526020019081526020016000206040518060c0016040529081600082015481526020016001820180546103ec90610d49565b80601f016020809104026020016040519081016040528092919081815260200182805461041890610d49565b80156104655780601f1061043a57610100808354040283529160200191610465565b820191906000526020600020905b81548152906001019060200180831161044857829003601f168201915b5050505050815260200160028201548152602001600382015481526020016004820160009054906101000a900460ff161515151581526020016004820160019054906101000a900473ffffffffffffffffffffffffffffffffffffffff1673ffffffffffffffffffffffffffffffffffffffff1673ffffffffffffffffffffffffffffffffffffffff16815250509050806060015134101561053c576040517f08c379a000000000000000000000000000000000000000000000000000000000815260040161053390610ae5565b60405180910390fd5b60008211801561054e57506000548211155b61058d576040517f08c379a000000000000000000000000000000000000000000000000000000000815260040161058490610b25565b60405180910390fd5b6001151581608001511515146105d8576040517f08c379a00000000000000000000000000000000000000000000000000000000081526004016105cf90610b05565b60405180910390fd5b7f000000000000000000000000000000000000000000000000000000000000000073ffffffffffffffffffffffffffffffffffffffff166323b872dd8260a001513384604001516040518463ffffffff1660e01b815260040161063d93929190610a73565b600060405180830381600087803b15801561065757600080fd5b505af115801561066b573d6000803e3d6000fd5b50505050600081608001901515908115158152505060008160a0015173ffffffffffffffffffffffffffffffffffffffff16346040516106aa90610a5e565b60006040518083038185875af1925050503d80600081146106e7576040519150601f19603f3d011682016040523d82523d6000602084013e6106ec565b606091505b5050905080610730576040517f08c379a000000000000000000000000000000000000000000000000000000000815260040161072790610ac5565b60405180910390fd5b505050565b82805461074190610d49565b90600052602060002090601f01602090048101928261076357600085556107aa565b82601f1061077c57805160ff19168380011785556107aa565b828001600101855582156107aa579182015b828111156107a957825182559160200191906001019061078e565b5b5090506107b791906107bb565b5090565b5b808211156107d45760008160009055506001016107bc565b5090565b60006107eb6107e684610c0d565b610be8565b90508281526020810184848401111561080757610806610e87565b5b610812848285610d07565b509392505050565b600082601f83011261082f5761082e610e82565b5b813561083f8482602086016107d8565b91505092915050565b60008135905061085781610f77565b92915050565b60008060006060848603121561087657610875610e91565b5b600084013567ffffffffffffffff81111561089457610893610e8c565b5b6108a08682870161081a565b93505060206108b186828701610848565b92505060406108c286828701610848565b9150509250925092565b6000602082840312156108e2576108e1610e91565b5b60006108f084828501610848565b91505092915050565b61090281610cbf565b82525050565b61091181610c77565b82525050565b61092081610c65565b82525050565b61092f81610c89565b82525050565b61093e81610cd1565b82525050565b600061094f82610c3e565b6109598185610c54565b9350610969818560208601610d16565b61097281610e96565b840191505092915050565b600061098a601483610c54565b915061099582610ea7565b602082019050919050565b60006109ad601983610c54565b91506109b882610ed0565b602082019050919050565b60006109d0601883610c54565b91506109db82610ef9565b602082019050919050565b60006109f3600c83610c54565b91506109fe82610f22565b602082019050919050565b6000610a16601b83610c54565b9150610a2182610f4b565b602082019050919050565b6000610a39600083610c49565b9150610a4482610f74565b600082019050919050565b610a5881610cb5565b82525050565b6000610a6982610a2c565b9150819050919050565b6000606082019050610a8860008301866108f9565b610a956020830185610917565b610aa26040830184610a4f565b949350505050565b6000602082019050610abf6000830184610935565b92915050565b60006020820190508181036000830152610ade8161097d565b9050919050565b60006020820190508181036000830152610afe816109a0565b9050919050565b60006020820190508181036000830152610b1e816109c3565b9050919050565b60006020820190508181036000830152610b3e816109e6565b9050919050565b60006020820190508181036000830152610b5e81610a09565b9050919050565b6000602082019050610b7a6000830184610a4f565b92915050565b600060c082019050610b956000830189610a4f565b8181036020830152610ba78188610944565b9050610bb66040830187610a4f565b610bc36060830186610a4f565b610bd06080830185610926565b610bdd60a0830184610908565b979650505050505050565b6000610bf2610c03565b9050610bfe8282610d7b565b919050565b6000604051905090565b600067ffffffffffffffff821115610c2857610c27610e53565b5b610c3182610e96565b9050602081019050919050565b600081519050919050565b600081905092915050565b600082825260208201905092915050565b6000610c7082610c95565b9050919050565b6000610c8282610c95565b9050919050565b60008115159050919050565b600073ffffffffffffffffffffffffffffffffffffffff82169050919050565b6000819050919050565b6000610cca82610ce3565b9050919050565b6000610cdc82610ce3565b9050919050565b6000610cee82610cf5565b9050919050565b6000610d0082610c95565b9050919050565b82818337600083830152505050565b60005b83811015610d34578082015181840152602081019050610d19565b83811115610d43576000848401525b50505050565b60006002820490506001821680610d6157607f821691505b60208210811415610d7557610d74610e24565b5b50919050565b610d8482610e96565b810181811067ffffffffffffffff82111715610da357610da2610e53565b5b80604052505050565b6000610db782610cb5565b91507fffffffffffffffffffffffffffffffffffffffffffffffffffffffffffffffff821415610dea57610de9610df5565b5b600182019050919050565b7f4e487b7100000000000000000000000000000000000000000000000000000000600052601160045260246000fd5b7f4e487b7100000000000000000000000000000000000000000000000000000000600052602260045260246000fd5b7f4e487b7100000000000000000000000000000000000000000000000000000000600052604160045260246000fd5b600080fd5b600080fd5b600080fd5b600080fd5b6000601f19601f8301169050919050565b7f4661696c656420746f2073656e64204574686572000000000000000000000000600082015250565b7f50726963652073656e74206973206e6f7420636f727265637400000000000000600082015250565b7f4974656d206e6f74206c697374656420666f722073616c650000000000000000600082015250565b7f57726f6e67206974656d49640000000000000000000000000000000000000000600082015250565b7f50726963652073686f756c64206265206d6f7265207468616e20300000000000600082015250565b50565b610f8081610cb5565b8114610f8b57600080fd5b5056fea264697066735822122067c6af1c3d76174953f690e1888464f5744450f008a5a3f6608c1f34572f87c364736f6c63430008070033",
  "linkReferences": {},
  "deployedLinkReferences": {}
}